{"abi":[{"type":"constructor","inputs":[{"name":"_starknet","type":"address","internalType":"address"},{"name":"_l1Token","type":"address","internalType":"address"},{"name":"_l2Bridge","type":"uint256","internalType":"uint256"}],"stateMutability":"nonpayable"},{"type":"function","name":"deposit","inputs":[{"name":"amount","type":"uint256","internalType":"uint256"},{"name":"l2Recipient","type":"uint256","internalType":"uint256"},{"name":"fee","type":"uint256","internalType":"uint256"}],"outputs":[],"stateMutability":"payable"},{"type":"function","name":"l1Token","inputs":[],"outputs":[{"name":"","type":"address","internalType":"address"}],"stateMutability":"view"},{"type":"function","name":"l2Bridge","inputs":[],"outputs":[{"name":"","type":"uint256","internalType":"uint256"}],"stateMutability":"view"},{"type":"function","name":"starknet","inputs":[],"outputs":[{"name":"","type":"address","internalType":"address"}],"stateMutability":"view"},{"type":"function","name":"withdraw","inputs":[{"name":"amount","type":"uint256","internalType":"uint256"},{"name":"l1Recipient","type":"address","internalType":"address"},{"name":"l2TxHash","type":"uint256","internalType":"uint256"}],"outputs":[],"stateMutability":"nonpayable"},{"type":"event","name":"LogDeposit","inputs":[{"name":"l1Sender","type":"address","indexed":true,"internalType":"address"},{"name":"amount","type":"uint256","indexed":false,"internalType":"uint256"},{"name":"l2Recipient","type":"uint256","indexed":false,"internalType":"uint256"}],"anonymous":false},{"type":"event","name":"LogWithdrawal","inputs":[{"name":"l1Recipient","type":"address","indexed":true,"internalType":"address"},{"name":"amount","type":"uint256","indexed":false,"internalType":"uint256"},{"name":"l2TxHash","type":"uint256","indexed":false,"internalType":"uint256"}],"anonymous":false}],"bytecode":{"object":"0x60e060405234801561001057600080fd5b5060405161098738038061098783398101604081905261002f916100d9565b7f080000000000001100000000000000000000000000000000000000000000000181106100a25760405162461bcd60e51b815260206004820152601960248201527f496e76616c6964204c3220627269646765206164647265737300000000000000604482015260640160405180910390fd5b6001600160a01b03928316608052911660a05260c052610115565b80516001600160a01b03811681146100d457600080fd5b919050565b6000806000606084860312156100ee57600080fd5b6100f7846100bd565b9250610105602085016100bd565b9150604084015190509250925092565b60805160a05160c0516108146101736000396000818160750152818161019901528181610383015261054f015260008181610108015281816102c701526105e301526000818160bc01528181610354015261052201526108146000f3fe6080604052600436106100495760003560e01c8062aeef8a1461004e578063ae1f6aaf14610063578063bb903eea146100aa578063c01e1bd6146100f6578063e63697c81461012a575b600080fd5b61006161005c366004610692565b61014a565b005b34801561006f57600080fd5b506100977f000000000000000000000000000000000000000000000000000000000000000081565b6040519081526020015b60405180910390f35b3480156100b657600080fd5b506100de7f000000000000000000000000000000000000000000000000000000000000000081565b6040516001600160a01b0390911681526020016100a1565b34801561010257600080fd5b506100de7f000000000000000000000000000000000000000000000000000000000000000081565b34801561013657600080fd5b506100616101453660046106be565b610455565b6000831161018d5760405162461bcd60e51b815260206004820152600b60248201526a0416d6f756e7420697320360ac1b60448201526064015b60405180910390fd5b81158015906101bc57507f00000000000000000000000000000000000000000000000000000000000000008214155b80156101d55750600167080000000000001160c01b0182105b6102185760405162461bcd60e51b8152602060048201526014602482015273125b9d985b1a5908130c881c9958da5c1a595b9d60621b6044820152606401610184565b6040805160038082526080820190925260009160208201606080368337019050509050828160008151811061024f5761024f610702565b60209081029190910101526001600160801b038416608085901c8260018151811061027c5761027c610702565b602002602001018360028151811061029657610296610702565b6020908102919091010191909152526040516323b872dd60e01b8152336004820152306024820152604481018590527f00000000000000000000000000000000000000000000000000000000000000006001600160a01b0316906323b872dd906064016020604051808303816000875af1158015610318573d6000803e3d6000fd5b505050506040513d601f19601f8201168201806040525081019061033c9190610718565b50604051633e3aa6c560e01b81526001600160a01b037f00000000000000000000000000000000000000000000000000000000000000001690633e3aa6c59084906103cf907f0000000000000000000000000000000000000000000000000000000000000000907f02d757788a8d8d6f21d1cd40bce38a8222d70654214e96ff95d8086e684fbee590879060040161077c565b60206040518083038185885af11580156103ed573d6000803e3d6000fd5b50505050506040513d601f19601f8201168201806040525081019061041291906107a4565b50604080518581526020810185905233917f9dbb0e7dda3e09710ce75b801addc87cf9d9c6c581641b3275fca409ad086c6291015b60405180910390a250505050565b60408051600480825260a082019092526000916020820160808036833701905050905060018160008151811061048d5761048d610702565b602002602001018181525050826001600160a01b0316816001815181106104b6576104b6610702565b60209081029190910101526001600160801b038416608085901c826002815181106104e3576104e3610702565b60200260200101836003815181106104fd576104fd610702565b60209081029190910101919091525260405162b2775760e61b81526001600160a01b037f00000000000000000000000000000000000000000000000000000000000000001690632c9dd5c090610579907f00000000000000000000000000000000000000000000000000000000000000009085906004016107bd565b6020604051808303816000875af1158015610598573d6000803e3d6000fd5b505050506040513d601f19601f820116820180604052508101906105bc91906107a4565b5060405163a9059cbb60e01b81526001600160a01b038481166004830152602482018690527f0000000000000000000000000000000000000000000000000000000000000000169063a9059cbb906044016020604051808303816000875af115801561062c573d6000803e3d6000fd5b505050506040513d601f19601f820116820180604052508101906106509190610718565b5060408051858152602081018490526001600160a01b038516917ff9226daf630542048a23086c6af599511aac100ec8f532793cc9697d061bed7e9101610447565b6000806000606084860312156106a757600080fd5b505081359360208301359350604090920135919050565b6000806000606084860312156106d357600080fd5b8335925060208401356001600160a01b03811681146106f157600080fd5b929592945050506040919091013590565b634e487b7160e01b600052603260045260246000fd5b60006020828403121561072a57600080fd5b8151801515811461073a57600080fd5b9392505050565b600081518084526020808501945080840160005b8381101561077157815187529582019590820190600101610755565b509495945050505050565b83815282602082015260606040820152600061079b6060830184610741565b95945050505050565b6000602082840312156107b657600080fd5b5051919050565b8281526040602082015260006107d66040830184610741565b94935050505056fea264697066735822122082c1930bf786041dd091631886c128093c25b0d9dd60e4cdfd949d073f8b4a2a64736f6c634300080d0033","linkReferences":{}},"methodIdentifiers":{"deposit(uint256,uint256,uint256)":"00aeef8a","l1Token()":"c01e1bd6","l2Bridge()":"ae1f6aaf","starknet()":"bb903eea","withdraw(uint256,address,uint256)":"e63697c8"},"id":33}